{
    "abi": [
        {
            "type": "function",
            "name": "forwardValue",
            "inputs": [
                {
                    "name": "to",
                    "type": "address",
                    "internalType": "address"
                },
                {
                    "name": "value",
                    "type": "uint256",
                    "internalType": "uint256"
                }
            ],
            "outputs": [],
            "stateMutability": "payable"
        }
    ],
    "bytecode": {
        "object": "0x6080806040523460155761014f908161001b8239f35b600080fdfe6080604052600436101561001257600080fd5b60003560e01c6398f850f11461002757600080fd5b6040366003190112610114576004356001600160a01b038116810361011457600080808093602435905af13d1561010f573d67ffffffffffffffff81116100f95760405190601f8101601f19908116603f0116820167ffffffffffffffff8111838210176100f9576040528152600060203d92013e5b156100a457005b60405162461bcd60e51b815260206004820152602760248201527f56616c7565466f727761726465723a204661696c656420746f20666f72776172604482015266642076616c756560c81b6064820152608490fd5b634e487b7160e01b600052604160045260246000fd5b61009d565b600080fdfea26469706673582212202706a11f313e042ccf1cd42b40b5f01308364a2290592fe4e14dce33175da1bf64736f6c634300081c0033",
        "linkReferences": {}
    },
    "methodIdentifiers": {
        "forwardValue(address,uint256)": "98f850f1"
    },
    "id": 42
}